:100000000C942A000C94BA000C943C000C943C0014
:100010000C943C000C943C000C943C000C943C0070
:100020000C943C000C943C000C943C000C943C0060
:100030000C943C000C943C000C943C000C943C0050
:100040000C943C000C943C000C943C000C943C0040
:100050000C943C0011241FBECFE5D8E0DEBFCDBF1D
:1000600020E0A0E6B0E001C01D92A436B207E1F79F
:100070000E941B020C945C030C940000789485B7DA
:10008000836085BF8BB780648BBF62E084E40E948D
:10009000AB0160E081E40E94AF0161E081E40E9475
:1000A000AF0162E081E40E94AF0160E082E40E945F
:1000B000AF0161E082E40E94AF0162E082E40E944D
:1000C000AF0160E081E40E94B30162E082E40E943B
:1000D000B30110926100109260000E94250360E05D
:1000E00081E40E94B70162E082E40E94B70162E00D
:1000F00082E40E94B30161E081E40E94BB01C1E09F
:10010000D0E0D0936100C093600061E081E40E9480
:10011000B70162E082E40E94B70162E081E40E94DC
:10012000B30160E082E40E94B30182E090E090932A
:100130006100809360000E94250362E081E40E94D8
:10014000B70160E082E40E94B70162E082E40E94AD
:10015000B30161E081E40E94BB01D0936100C093D0
:10016000600061E081E40E94B70162E082E40E94E5
:10017000B701A7CF1F920F920FB60F9211242F93A2
:100180003F934F935F936F937F938F939F93AF931F
:10019000BF93EF93FF938091600090916100813055
:1001A000910509F45CC08230910509F4A9C0892B3E
:1001B00009F0C0C060E081E40E94B70162E082E41F
:1001C0000E94B30121E042E461E081E40E94DE018B
:1001D00062E082E40E94B70161E081E40E94B7011D
:1001E00061E082E40E94B70162E081E40E94B30111
:1001F00060E082E40E94B3010E94250362E081E492
:100200000E94B70121E042E461E081E40E94DE0146
:1002100061E081E40E94B70161E082E40E94B701DD
:1002200060E082E40E94B70162E082E40E94B301D0
:1002300060E081E40E94B3010E94450362E082E431
:100240000E94B70160E081E40E94B7010E94180398
:1002500084E190E090936300809362006BC061E062
:1002600081E40E94B70160E081E40E94B70162E08E
:1002700082E40E94B30121E042E461E081E40E9453
:10028000DE0162E082E40E94B70161E081E40E9445
:10029000B70161E082E40E94B70162E081E40E945C
:1002A000B30160E082E40E94B3010E94250362E092
:1002B00081E40E94B70121E042E461E081E40E9410
:1002C000DE0161E081E40E94B70161E082E40E9406
:1002D000B70160E082E40E94B70162E082E40E941C
:1002E000B30160E081E40E94B3010E9445030E94D3
:1002F000180384E190E090936300809362001AC039
:1003000060E082E40E94B30162E081E40E94B301F4
:100310000E94250360E082E40E94B70162E081E46C
:100320000E94B7010E94180384E190E0909363005B
:1003300080936200FF91EF91BF91AF919F918F9158
:100340007F916F915F914F913F912F910F900FBED1
:100350000F901F90189540E00E942002089541E000
:100360000E942002089541E00E949A02089540E010
:100370000E949A020895CF93DF93C82FD62F0E9430
:10038000B3010E9445036D2F8C2F0E94B7010E947C
:1003900045036D2F8C2F0E94B3010E9445036D2FE2
:1003A0008C2F0E94B7010E9445036D2F8C2F0E9455
:1003B000B3010E944503DF91CF9108950F931F93DE
:1003C000CF93DF93182F062FC42FD22F0E94B30193
:1003D0006D2F8C2F0E94B3010E944503602F812F47
:1003E0000E94B7016D2F8C2F0E94B7010E94450318
:1003F000602F812F0E94B3016D2F8C2F0E94B301BB
:100400000E944503602F812F0E94B7016D2F8C2F12
:100410000E94B7010E944503602F812F0E94B30103
:100420006D2F8C2F0E94B3010E944503DF91CF9165
:100430001F910F9108950E943E0080E090E0089582
:10044000823431F118F4813439F008958334E1F1C4
:10045000843409F454C0089541110CC02AB381E0DA
:1004600090E002C0880F991F6A95E2F78095822379
:100470008ABB0895413009F05CC02AB381E090E066
:1004800002C0880F991F6A95E2F7822B8ABB0895F4
:1004900041110CC027B381E090E002C0880F991F82
:1004A0006A95E2F78095822387BB0895413009F071
:1004B00040C027B381E090E002C0880F991F6A9581
:1004C000E2F7822B87BB089541110CC024B381E071
:1004D00090E002C0880F991F6A95E2F78095822309
:1004E00084BB0895413029F524B381E090E002C037
:1004F000880F991F6A95E2F7822B84BB08954111FA
:100500000CC021B381E090E002C0880F991F6A956A
:10051000E2F78095822381BB0895413051F421B3E5
:1005200081E090E002C0880F991F6A95E2F7822B64
:1005300081BB0895823431F118F4813439F0089583
:100540008334E1F1843409F454C0089541110CC09E
:100550002BB381E090E002C0880F991F6A95E2F703
:10056000809582238BBB0895413009F05CC02BB38A
:1005700081E090E002C0880F991F6A95E2F7822B14
:100580008BBB089541110CC028B381E090E002C0FC
:10059000880F991F6A95E2F78095822388BB08959A
:1005A000413009F040C028B381E090E002C0880FDC
:1005B000991F6A95E2F7822B88BB089541110CC000
:1005C00025B381E090E002C0880F991F6A95E2F799
:1005D0008095822385BB0895413029F525B381E0BC
:1005E00090E002C0880F991F6A95E2F7822B85BBC5
:1005F000089541110CC022B381E090E002C0880F41
:10060000991F6A95E2F78095822382BB0895413055
:1006100051F422B381E090E002C0880F991F6A95DF
:10062000E2F7822B82BB089513BE8CE082BF08954F
:1006300083B7816083BF83B7846083BF089513BE8F
:10064000089588B7816088BF089510926300109262
:1006500062000E9414030E9418030EC008B600FE38
:10066000FDCF0E942103809162009091630001966A
:100670009093630080936200809162009091630088
:10068000449764F30E941F030895CF93DF930E9461
:1006900014030E941803C0E0D0E006C008B600FEB4
:1006A000FDCF0E9421032196C430D105BCF30E94E6
:0C06B0001F03DF91CF910895F894FFCF55
:00000001FF
